:100000000A128A1112280134FE0003088312031316
:10001000AB000408AC000A08AD007F08AE000A126D
:100020008A11942B0A128A150228FF1B1F2883139A
:100030007F1883170008840A0319FF0A080000309C
:100040008A000408840A8207003453346534723409
:10005000763469346E346734203443346F34663414
:100060006634653465342E342E34003453344534CC
:100070005434543449344E34473453342034553492
:1000800050344434413454344534443400345334CB
:1000900065347234763469346E34673420345734BE
:1000A00061347434653472342E342E340034443464
:1000B00045344634413455344C345434203455346A
:1000C000503444344134543445344434003443349B
:1000D0004F34463446344534453420345334453463
:1000E0005434543449344E34473453340034533444
:1000F00065347234763469346E346734203448346D
:1001000061346C3466342E342E340034503452341E
:1001100045345334533420344534583449345434FA
:1001200020344B344534593400345334453454343A
:10013000543449344E34473453345F3430344634C5
:1001400046345F3449340034533465347234763481
:1001500069346E34673420345434653461342E3459
:100160002E340034533445345434543449344E34EA
:10017000473453345F3430344E345F3449340034C0
:100180005434453441342034533445345434543495
:1001900049344E34473453340034533445345434A2
:1001A0002034443445344634413455344C3454348A
:1001B00053340034533474346134723474346934D5
:1001C0006E3467342E342E342E342E3400345734AB
:1001D00045344C3443344F344D3445340034593471
:1001E00045345334003443343A34003454343A34CC
:1001F000003457343A3400344E344F340034053030
:10020000831203178D003F3083120313AF002F08B2
:10021000831603178C050C14831203170C08831222
:100220000313AF002F08B2003208013A031919294D
:100230001A29372B1B29831603178C1820292129EB
:100240001B291030831203178D0010308C003F30B3
:1002500083120313AF002F08831603178C05831234
:10026000031303108B1F35293629372903148B13E9
:10027000831603170C1555308D00AA308D008C1491
:100280000C1183120313031C4629472948298B1795
:100290000330B1008830B0005630AF00AF0B4E29AC
:1002A000B00B4E29B10B4E295529831603178C1814
:1002B0005A295B2955291230831203178D001030FB
:1002C0008C003F3083120313AF002F0883160317EF
:1002D0008C058312031303108B1F6F29702971295A
:1002E00003148B13831603170C1555308D00AA3099
:1002F0008D008C140C1183120313031C8029812997
:1003000082298B170330B1008830B0005630AF001F
:10031000AF0B8829B00B8829B10B88298F29831648
:1003200003178C18942995298F29143083120317E9
:100330008D0010308C003F3083120313AF002F0864
:10034000831603178C058312031303108B1FA9292F
:10035000AA29AB2903148B13831603170C155530E8
:100360008D00AA308D008C140C1183120313031C12
:10037000BA29BB29BC298B170330B1008830B000E3
:100380005630AF00AF0BC229B00BC229B10BC22946
:10039000C929831603178C18CE29CF29C9291630ED
:1003A000831203178D0010308C003F30831203132B
:1003B000AF002F08831603178C0583120313031055
:1003C0008B1FE329E429E52903148B1383160317F4
:1003D0000C1555308D00AA308D008C140C11831231
:1003E0000313031CF429F529F6298B170330B100F8
:1003F0008830B0005630AF00AF0BFC29B00BFC29A1
:10040000B10BFC29032A831603178C18082A092A22
:10041000032A2030831203178D0010308C003F30E8
:1004200083120313AF002F08831603178C05831262
:10043000031303108B1F1D2A1E2A1F2A03148B135C
:10044000831603170C1555308D00AA308D008C14BF
:100450000C1183120313031C2E2A2F2A302A8B1708
:100460000330B1008830B0005630AF00AF0B362AF1
:10047000B00B362AB10B362A3D2A831603178C1887
:10048000422A432A3D2A2230831203178D0010305E
:100490008C003F3083120313AF002F08831603171D
:1004A0008C058312031303108B1F572A582A592ACD
:1004B00003148B13831603170C1555308D00AA30C7
:1004C0008D008C140C1183120313031C682A692AF3
:1004D0006A2A8B170330B1008830B0005630AF0065
:1004E000AF0B702AB00B702AB10B702A772A8316D3
:1004F00003178C187C2A7D2A772A2430831203174D
:100500008D0010308C003F3083120313AF002F0892
:10051000831603178C058312031303108B1F912A74
:10052000922A932A03148B13831603170C15553044
:100530008D00AA308D008C140C1183120313031C40
:10054000A22AA32AA42A8B170330B1008830B00056
:100550005630AF00AF0BAA2AB00BAA2AB10BAA2AB9
:10056000B12A831603178C18B62AB72AB12A263067
:10057000831203178D0010308C003F308312031359
:10058000AF002F08831603178C0583120313031083
:100590008B1FCB2ACC2ACD2A03148B138316031767
:1005A0000C1555308D00AA308D008C140C1183125F
:1005B0000313031CDC2ADD2ADE2A8B170330B1006B
:1005C0008830B0005630AF00AF0BE42AB00BE42AFD
:1005D000B10BE42A103083120313AF002F08C000C0
:1005E0001030AF002F08C2001030AF002F08C1003C
:1005F0001030AF002F08C300FD2A831603178C1894
:10060000022B032BFD2A0530831203178D000130C6
:100610008C003F3083120313AF002F08831603179B
:100620008C058312031303108B1F172B182B192B08
:1006300003148B13831603170C1555308D00AA3045
:100640008D008C140C1183120313031C282B292BEF
:100650002A2B8B170330B1008830B0005630AF0022
:10066000AF0B302BB00B302BB10B302B932B8312F5
:1006700003133208013A031D3E2B3F2B932B2030EE
:10068000831203178D003F3083120313AF002F082E
:10069000831603178C050C14831203170C0883129E
:1006A0000313AF002F08C0002230831203178D0000
:1006B0003F3083120313AF002F08831603178C05F6
:1006C0000C14831203170C0883120313AF002F08B6
:1006D000C2002430831203178D003F3083120313AE
:1006E000AF002F08831603178C050C148312031711
:1006F0000C0883120313AF002F08C10026308312A9
:1007000003178D003F3083120313AF002F088316A9
:1007100003178C050C14831203170C0883120313A0
:10072000AF002F08C30008008B1E972B982BE82BD7
:100730000B1D9B2B9C2BE82B0130A8002808CE0713
:100740004E085A3A031DA52BA62BB32BC801031440
:10075000C80D0310003003180130CE000130A8008E
:100760002808CF07B82B0310003003180130C80049
:100770000A304F02031CBD2BBE2BE22BC901031410
:10078000C90DCA010314CA0D7D08013A031DC92B06
:10079000CA2BDA2B0A168A1173270A128A117108DA
:1007A000FB01FB077008FA01FA070A128A158A256D
:1007B0000A128A1103100030031801308312031348
:1007C000CF00E72B0310003003180130C9000B11D4
:1007D0000B1EEB2BEC2BCF2C8B1CEF2BF02BCF2CF1
:1007E0000A168A1142250A128A110A168A1144250C
:1007F0000A128A118B10003083120313BE000030DE
:10080000BF00142C0130BE070318BF0A0030BF0719
:100810000330AA008830A9005630A800A80B0E2C7F
:10082000A90B0E2CAA0B0E2C831203130618192CDD
:100830001A2C272C3F08803AFE0080307E02031DD0
:10084000232C29303E02031C262C272C022C831239
:1008500003133F08803AFE0080307E02031D322CD5
:1008600028303E02031C352C362CC52C0A168A1162
:1008700062250A128A1183120313CB08031D412C2F
:10088000422C7E2C0310003003180130F500A030FC
:10089000F6008030F70000300A168A11DA250A12B5
:1008A0008A1183120313CB010314CB0D0310003004
:1008B00003180130FD000310003003180130F5006B
:1008C0008E30F6008030F70000300A168A11DA25E3
:1008D0000A128A111A3083120313AA004530A900A4
:1008E0007E30A800A80B722CA90B722CAA0B722CBC
:1008F0000A168A1180250A128A11C52C8312031345
:100900004B08013A031D852C862CC52C03100030A2
:1009100003180130CB00FD010314FD0D031000305E
:1009200003180130F5007130F6008030F700003018
:100930000A168A11DA250A128A110A128A11DC248F
:100940000A128A111A3083120313AA004530A90033
:100950007E30A800A80BAA2CA90BAA2CAA0BAA2CA3
:100960000A168A1162250A128A11043083120313AF
:10097000A8002808F500C330F6008030F7000030EA
:100980000A168A11DA250A128A110A168A114825CE
:100990000A128A110A168A114D250A128A11831227
:1009A00003132E08FF002D088A002C0884002B0852
:1009B0008300FE0E7E0E0900DD2C831603178C18B3
:1009C000E22CE32CDD2C2030831203178D008312E0
:1009D00003134008831203178C003F30F0007008A7
:1009E000831603178C058312031303108B1FF92C36
:1009F000FA2CFB2C03148B13831603170C1555309C
:100A00008D00AA308D008C140C1183120313031C6B
:100A10000A2D0B2D0C2D8B170330F2008830F100BE
:100A20005630F000F00B122DF10B122DF20B122D9F
:100A3000192D831603178C181E2D1F2D192D2230EA
:100A4000831203178D0083120313420883120317C6
:100A50008C003F30F0007008831603178C0583125A
:100A6000031303108B1F352D362D372D03148B13D5
:100A7000831603170C1555308D00AA308D008C1489
:100A80000C1183120313031C462D472D482D8B1781
:100A90000330F2008830F1005630F000F00B4E2D9C
:100AA000F10B4E2DF20B4E2D552D831603178C187E
:100AB0005A2D5B2D552D2430831203178D00831280
:100AC00003134108831203178C003F30F0007008B5
:100AD000831603178C058312031303108B1F712DCC
:100AE000722D732D03148B13831603170C155530B9
:100AF0008D00AA308D008C140C1183120313031C7B
:100B0000822D832D842D8B170330F2008830F10065
:100B10005630F000F00B8A2DF10B8A2DF20B8A2D46
:100B2000912D831603178C18962D972D912D263015
:100B3000831203178D0083120313430883120317D4
:100B40008C003F30F0007008831603178C05831269
:100B5000031303108B1FAD2DAE2DAF2D03148B137C
:100B6000831603170C1555308D00AA308D008C1498
:100B70000C1183120313031CBE2DBF2DC02D8B1728
:100B80000330F2008830F1005630F000F00BC62D33
:100B9000F10BC62DF20BC62D08000A168A11692525
:100BA0000A128A1183120313C508031DD82DD92DEB
:100BB000222E0230BB003B08B4009C30B5008030D0
:100BC000B60000300A168A11F1250A128A11831222
:100BD0000313C408031DED2DEE2D042EB4010314E0
:100BE000B40DD230B5008030B60001300A168A113B
:100BF000F1250A128A118312031341080A128A1579
:100C0000CA240A128A11222E831203134408013ABD
:100C1000031D0B2E0C2E222E0A30BB003B08B40005
:100C2000D530B5008030B60001300A168A11F125A2
:100C30000A128A118312031343080A128A15CA245E
:100C40000A128A11831203134508013A031D292E43
:100C50002A2E772E0310003003180130B4004330E1
:100C6000B5008030B60000300A168A11F1250A124C
:100C70008A11831203134408033A031D402E412EA8
:100C8000592E0310003003180130B400CF30B500E6
:100C90008030B60001300A168A11F1250A128A1135
:100CA0008312031340080A128A15CA240A128A11F1
:100CB000772E831203134408043A031D602E612E1D
:100CC000772E0A30BB003B08B400D530B500803029
:100CD000B60001300A168A11F1250A128A11831210
:100CE000031342080A128A15CA240A128A118312AF
:100CF00003134508023A031D7E2E7F2EAD2E0230CF
:100D0000BB003B08B400A930B5008030B60000300D
:100D10000A168A11F1250A128A110230831203136E
:100D2000BB003B08B400CB30B5008030B6000130CA
:100D30000A168A11F1250A128A110A308312031346
:100D4000BB003B08B400D830B5008030B60001309D
:100D50000A168A11F1250A128A114C3083120313E4
:100D6000BD00CE30BC008130BB00BB0BB52EBC0B30
:100D7000B52EBD0BB52E640008000A168A11622537
:100D80000A128A1183120313C508031DC82EC92E27
:100D9000122F0230A5002508F5009C30F6008030A7
:100DA000F70000300A168A11DA250A128A11831216
:100DB0000313C408031DDD2EDE2EF42EF5010314EB
:100DC000F50DD230F6008030F70001300A168A1196
:100DD000DA250A128A118312031341080A128A15AE
:100DE00092230A128A11122F831203134408013A24
:100DF000031DFB2EFC2E122F0A30A5002508F5003E
:100E0000D530F6008030F70001300A168A11DA2555
:100E10000A128A118312031343080A128A159223B5
:100E20000A128A11831203134508013A031D192F70
:100E30001A2F672F0310003003180130F5004330DC
:100E4000F6008030F70000300A168A11DA250A12FF
:100E50008A11831203134408033A031D302F312FE4
:100E6000492F0310003003180130F500CF30F60091
:100E70008030F70001300A168A11DA250A128A1129
:100E80008312031340080A128A1592230A128A1148
:100E9000672F831203134408043A031D502F512F68
:100EA000672F0A30A5002508F500D530F600803000
:100EB000F70001300A168A11DA250A128A11831204
:100EC000031342080A128A1592230A128A11831206
:100ED00003134508023A031D6E2F6F2F9D2F02301A
:100EE000A5002508F500A930F6008030F700003095
:100EF0000A168A11DA250A128A11023083120313A4
:100F0000A5002508F500CB30F6008030F700013051
:100F10000A168A11DA250A128A110A30831203137B
:100F2000A5002508F500D830F6008030F700013024
:100F30000A168A11DA250A128A114C308312031319
:100F4000A700CE30A6008130A500A50BA52FA60BCB
:100F5000A52FA70BA52F6400080083120313C50853
:100F6000031DB32FB42FCF2FC408031DB82FB92FE3
:100F7000BD2FC4010314C40DCE2F4408013A031D34
:100F8000C22FC32FCE2F033083160313A5002508CD
:100F900083120313C400C5010314C50DF92F4508BE
:100FA000013A031DD42FD52FF32F4408033A031D14
:100FB000DA2FDB2FE42F043083160313A500250856
:100FC00083120313C400F22F4408043A031DE92FCF
:100FD000EA2FF22F023083160313A500250883128F
:100FE0000313C500F92F4508023A031DF82FF92F06
:100FF000F92F01300A128A11CD250A128A11080030
:101000008B17080083133E30840050300A168A1173
:1010100078250A128A156130FD001530FE009F30D8
:10102000FF00503084000A168A1192250A128A1590
:101030000A128A1103200A128A15FD0083010A127E
:101040008A155E29333084008312031350088313FA
:101050008000840A51088000840A52088000840AB3
:1010600053088000840A54088000840A55088000D0
:101070000310003003180130B90006303902031C98
:1010800042284328442859283908333E8400000860
:101090000A128A15DC200A128A1501308312031302
:1010A000B2003208B90706303902031C5828592803
:1010B00044280800F2007208F00004300310F00C1D
:1010C000FF3E031D5E2870080F398312031388004A
:1010D0007208F0398800091483160313141183125F
:1010E000031389142130F1007630F000F00B7628DC
:1010F000F10B7628640083120313891072080F39EC
:1011000088007208F00003300310F00DFF3E031D4D
:1011100084280310700DF039880089142130F10003
:101120007630F000F00B9228F10B922864008312C5
:10113000031389100800F2007208F0000430031055
:10114000F00CFF3E031D9F2870080F398312031314
:1011500088007208F03988000910831603131411EF
:101160008312031389142130F1007630F000F00B64
:10117000B728F10BB7286400831203138910720893
:101180000F3988007208F00003300310F00DFF3EA5
:10119000031DC5280310700DF03988008914213013
:1011A000F1007630F000F00BD328F10BD328640067
:1011B000831203138910080083120313B10031084E
:1011C000AF0004300310AF0CFF3E031DE2282F08D0
:1011D0000F3988003108F03988000910831603138D
:1011E00014118312031389142130B0007630AF003C
:1011F000AF0BF828B00BF828640083120313891092
:1012000031080F3988003108AF0003300310AF0DEB
:10121000FF3E031D062903102F0DF03988008914A5
:101220002130B0007630AF00AF0B1429B00B142979
:101230006400831203138910080083120313B100A2
:101240003108AF0004300310AF0CFF3E031D23290B
:101250002F080F3988003108F039880009148316E7
:10126000031314118312031389142130B000763054
:10127000AF00AF0B3929B00B392964008312031377
:10128000891031080F3988003108AF00033003108E
:10129000AF0DFF3E031D472903102F0DF0398800C5
:1012A00089142130B0007630AF00AF0B5529B00B58
:1012B0005529640083120313891008000A168A1145
:1012C000B0250A128A150A168A1148270A128A15A9
:1012D0000A128A11FF200A128A150A168A11482654
:1012E0000A128A150A168A1169250A128A1501300E
:1012F0008312031386000A168A1157250A128A15CB
:101300007D08013A031D8529862998290430831612
:101310000313AC002C0883120313B400C330B500D0
:101320008030B60000300A168A11F1250A128A159B
:101330000A128A1559260A128A1580290A128A1158
:10134000122883120313C508031DA729A829BA2947
:10135000C408031DAC29AD29AE29B9294408013AB6
:10136000031DB329B429B929031000300318013033
:10137000C400E7294508013A031DBF29C029DE2919
:101380004408043A031DC529C629CF290330831612
:101390000313A500250883120313C400DD294408A4
:1013A000033A031DD429D529DD2903100030031881
:1013B0000130C500C4010314C40DE7294508023AF1
:1013C000031DE329E429E729C5010314C50D0130F4
:1013D0000A128A11CD250A128A150800031000305E
:1013E00003180130F600F31FF629F729FF29F20947
:1013F000F309F20A0319F30AF6010314F60DF11FBB
:10140000022A032A082AF009F109F00A0319F10A4D
:101410007108700403190D2A0E2A3E2AF5010314DF
:10142000F50D1D2A01300310F00DF10DFF3E031DD7
:10143000132A0130F4007408F507F11F202A212A2D
:10144000122A71087302031D272A70087202031CF6
:101450002A2A2B2A312A7008F2027108031CF3038E
:10146000F30201300310F10CF00CFF3E031D322A91
:101470000130F502031D3D2A3E2A212A7608031D6C
:10148000422A472AF209F309F20A0319F30A7308F8
:10149000F101F1077208F001F007080003100030B5
:1014A0000318013083120313B500B21F582A592ABA
:1014B000612AB109B209B10A0319B20AB5010314CC
:1014C000B50DB01F642A652A6A2AAF09B009AF0AB0
:1014D0000319B00A30082F0403196F2A702AA02AB2
:1014E000B4010314B40D7F2A01300310AF0DB00D09
:1014F000FF3E031D752A0130B3003308B407B01F47
:10150000822A832A742A30083202031D892A2F086E
:101510003102031C8C2A8D2A932A2F08B10230082D
:10152000031CB203B20201300310B00CAF0CFF3E3B
:10153000031D942A0130B402031D9F2AA02A832A86
:101540003508031DA42AA92AB109B209B10A031951
:10155000B20A3208B001B0073108AF01AF07080086
:101560000310003003180130F600F11FB82AB92A21
:10157000C12AF009F109F00A0319F10AF60103146E
:10158000F60DF31FC42AC52ACE2AF209F309F20A7E
:101590000319F30A0130F4007408F6060030F7006E
:1015A0000030F800710870040319D72AD82A102BCC
:1015B000F5010314F50DE72A01300310F00DF10DCC
:1015C000FF3E031DDD2A0130F4007408F507F11F0A
:1015D000EA2AEB2ADC2A01300310F70DF80DFF3E52
:1015E000031DEC2A71087302031DF82A70087202A9
:1015F000031CFB2AFC2A032B7008F2027108031C4F
:10160000F303F302771401300310F10CF00CFF3EEA
:10161000031D042B0130F502031D0F2B102BEB2AA9
:101620007608031D142B192BF709F809F70A03197B
:10163000F80A7808F101F1077708F001F0070800CF
:10164000031000300318013083120313B500B01FDC
:101650002A2B2B2B332BAF09B009AF0A0319B00A81
:10166000B5010314B50DB21F362B372B402BB10932
:10167000B209B10A0319B20A0130B3003308B50642
:101680000030B6000030B70030082F040319492B92
:101690004A2B822BB4010314B40D592B01300310D3
:1016A000AF0DB00DFF3E031D4F2B0130B3003308CB
:1016B000B407B01F5C2B5D2B4E2B01300310B60D11
:1016C000B70DFF3E031D5E2B30083202031D6A2B4F
:1016D0002F083102031C6D2B6E2B752B2F08B102C6
:1016E0003008031CB203B202361401300310B00CF0
:1016F000AF0CFF3E031D762B0130B402031D812B7E
:10170000822B5D2B3508031D862B8B2BB609B70961
:10171000B60A0319B70A3708B001B0073608AF0197
:10172000AF07080083120313A4005E08A3005D083E
:10173000A2005C08A1005B08A0000A30F0000030A5
:10174000F1002408F900FA017908F2007A08F300A0
:101750000A128A15EE210A128A157008303EFB0023
:101760007B0883120313A2000A30F0000030F1005E
:101770002408F900FA017908F2007A08F3000A1245
:101780008A15B0220A128A157008FB007B088312A2
:101790000313A4000A30F0000030F1002408F9001F
:1017A000FA017908F2007A08F3000A128A15EE218C
:1017B0000A128A157008303EFB007B08831203135F
:1017C000A1000A30F0000030F1002408F900FA010D
:1017D0007908F2007A08F3000A128A15B0220A1278
:1017E0008A157008FB007B0883120313A4000A30DB
:1017F000F0000030F1002408F900FA017908F20045
:101800007A08F3000A128A15EE210A128A15700866
:10181000303EFB007B0883120313A0002030F3004E
:101820000030F4000A168A1168260A128A15080088
:1018300083120313C408031D1E2C1F2C2E2CC50855
:10184000031D232C242C2E2C4108FF3E831603134A
:10185000A500250883120313C100C32C4408013AD4
:10186000031D332C342C492CC508031D382C392C6E
:10187000492C1030430203183E2C3F2C482C4308BF
:10188000FF3E83160313A500250883120313C3002C
:10189000C32C4408033A031D4E2C4F2C652C4508DD
:1018A000013A031D542C552C652C103040020318AE
:1018B0005A2C5B2C642C4008FF3E83160313A500B2
:1018C000250883120313C000C32C4408043A031DE7
:1018D0006A2C6B2C812C4508013A031D702C712C4D
:1018E000812C103042020318762C772C802C420871
:1018F000FF3E83160313A500250883120313C200BD
:10190000C32C4508023A031D862C872CC32C0310D8
:10191000003003180130B4001230B5008030B6003A
:1019200001300A168A11F1250A128A1533308316FE
:101930000313A7008930A6000030A500A50B9E2C3C
:10194000A60B9E2CA70B9E2C031000300318013011
:1019500083120313B4006230B5008030B60001304A
:101960000A168A11F1250A128A15333083160313D9
:10197000A7008930A6000030A500A50BBD2CA60B42
:10198000BD2CA70BBD2C00300A128A11CD250A12DE
:101990008A15080083160313A400831203135E083C
:1019A00083160313A300831203135D088316031326
:1019B000A200831203135C0883160313A100831291
:1019C00003135B0883160313A0000A30831203136A
:1019D000AF000030B00083160313240883120313F2
:1019E000B800B9013808B1003908B2000A128A15E6
:1019F0004E220A128A15831203132F08303EBA00B2
:101A00003A0883160313A2000A3083120313AF00AF
:101A10000030B00083160313240883120313B800A8
:101A2000B9013808B1003908B2000A128A1520231A
:101A30000A128A15831203132F08BA003A08831674
:101A40000313A4000A3083120313AF000030B00068
:101A500083160313240883120313B800B90138084E
:101A6000B1003908B2000A128A154E220A128A15EC
:101A7000831203132F08303EBA003A08831603136B
:101A8000A1000A3083120313AF000030B0008316A8
:101A90000313240883120313B800B9013808B100F6
:101AA0003908B2000A128A1520230A128A158312F5
:101AB00003132F08BA003A0883160313A4000A3050
:101AC00083120313AF000030B00083160313240801
:101AD00083120313B800B9013808B1003908B20005
:101AE0000A128A154E220A128A15831203132F082E
:101AF000303EBA003A0883160313A000A0308312C8
:101B00000313B2000030B3000A168A1120270A120C
:101B10008A150800203084008312031356088313AB
:101B20008000840A57088000840A58088000840ACC
:101B300059088000840A5A0880000A30F0000030FA
:101B4000F1007B08F301F3077A08F201F2070A12A9
:101B50008A15EE210A128A157008303EFC007C08B6
:101B600083120313A3000A30F0000030F1007B0859
:101B7000F301F3077A08F201F2070A128A15B0227C
:101B80000A128A157108FB01FB077008FA01FA07AF
:101B90000A30F0000030F1007B08F301F3077A0807
:101BA000F201F2070A128A15EE210A128A1570084C
:101BB000303EFC007C0883120313A2000A30F000C0
:101BC0000030F1007B08F301F3077A08F201F20715
:101BD0000A128A15B0220A128A157108FB01FB0746
:101BE0007008FA01FA070A30F0000030F1007B08B3
:101BF000F301F3077A08F201F2070A128A15EE21BF
:101C00000A128A157008303EFC007C088312031308
:101C1000A1000A30F0000030F1007B08F301F30767
:101C20007A08F201F2070A128A15B0220A128A15FE
:101C30007108FB01FB077008FA01FA070A30F0008F
:101C40000030F1007B08F301F3077A08F201F20794
:101C50000A128A15EE210A128A157008303EFC001D
:101C60007C0883120313A0000A30F0000030F1005A
:101C70007B08F301F3077A08F201F2070A128A15CA
:101C8000B0220A128A157108FB01FB077008FA01DD
:101C9000FA070310003003180130F5002030F60079
:101CA0000030F70001300A168A11DA250A128A1567
:101CB0000800031000300318013083120313CD0015
:101CC00086010310003003180130CC00F22E061AF2
:101CD0006A2E6B2E8B2E0D3083160313AB00A330B0
:101CE000AA00BD30A900A90B732EAA0B732EAB0B53
:101CF000732E640083120313061A7F2E802E8B2E00
:101D0000CC010314CC0D043083160313A900290859
:101D100083120313CD00861A8E2E8F2EAF2E0D3018
:101D200083160313AB00A330AA00BD30A900A90B92
:101D3000972EAA0B972EAB0B972E640083120313DA
:101D4000861AA32EA42EAF2ECC010314CC0D033083
:101D500083160313A900290883120313CD00061B61
:101D6000B22EB32ED32E0D3083160313AB00A33047
:101D7000AA00BD30A900A90BBB2EAA0BBB2EAB0B32
:101D8000BB2E640083120313061BC72EC82ED32E4E
:101D9000CC010314CC0D023083160313A9002908CB
:101DA00083120313CD00861BD62ED72EF22E0D30B4
:101DB00083160313AB00A330AA00BD30A900A90B02
:101DC000DF2EAA0BDF2EAB0BDF2E64008312031372
:101DD000861BEB2EEC2EF22ECC010314CC0DCD0184
:101DE0000314CD0DCC08031DF62EF72EFB2E4D0847
:101DF000031DFB2E672E4C08013A031D002F012FF7
:101E00001B2FFD08031D052F062F0D2F4D080A1649
:101E10008A11D1270A128A151B2F7D08013A031D4A
:101E2000122F132F1B2F831203134D080A168A112A
:101E3000A2270A128A1503100030031801308312FA
:101E40000313CC000310003003180130CD0008004C
:101E500083120313C408031D2E2F2F2F442FC508F0
:101E6000031D332F342F442F103041020318392F14
:101E70003A2F432F4108013E83160313A50025087E
:101E800083120313C100F92F4408013A031D492F9F
:101E90004A2F5F2FC508031D4E2F4F2F5F2F103085
:101EA00043020318542F552F5E2F4308013E83161B
:101EB0000313A500250883120313C300F92F440858
:101EC000033A031D642F652F7B2F4508013A031D3C
:101ED0006A2F6B2F7B2F103040020318702F712F49
:101EE0007A2F4008013E83160313A50025088312AC
:101EF0000313C000F92F4408043A031D802F812FDB
:101F0000972F4508013A031D862F872F972F1030F2
:101F1000420203188C2F8D2F962F4208013E831604
:101F20000313A500250883120313C200F92F4508E7
:101F3000023A031D9C2F9D2FF92F10308316031397
:101F4000A500250883120313C00010308316031365
:101F5000A500250883120313C20010308316031353
:101F6000A500250883120313C10010308316031344
:101F7000A500250883120313C300031000300318C3
:101F80000130B4003330B5008030B60001300A169D
:101F90008A11F1250A128A15333083160313A7001C
:101FA0008930A6000030A500A50BD42FA60BD42F96
:101FB000A70BD42F03100030031801308312031332
:101FC000B4006230B5008030B60001300A168A11C4
:101FD000F1250A128A15333083160313A7008930BE
:101FE000A6000030A500A50BF32FA60BF32FA70B1F
:101FF000F32F00300A128A11CD250A128A15080023
:102A84000B12080083120313810108008316031339
:102A940001130B1608000130831203138100080090
:102AA4008316031301130B1608000130831203135A
:102AB40081000800F1308316031386008117080093
:102AC40001300A128A159B200A168A110800013067
:102AD4000A128A15DC200A168A11080083120313CD
:102AE4009F018030831603139F0008006400800157
:102AF400840A0406031900340406792D03100030F7
:102B04000318013083120313C50000300A128A111E
:102B1400BD260A168A1108007E088A007F088200F2
:102B24008E250A168A118000840A04087D0603197A
:102B34000034FF0A0319FE0A922D023428340E349D
:102B4400013406348034303430343034303400349A
:102B540030343034303400340134013401308316DD
:102B64000317880089018030831603139F008901AD
:102B740088018701F130860001308500FD010314CE
:102B8400FD0D08008316031301148114011581112E
:102B94008112011283120313810183160313011797
:102BA4008B160B170A128A1500200A168A110800C0
:102BB400F9007508F8007808F30079080A168A11F4
:102BC4000C260A168A117708F401F4077608F30133
:102BD400F3070A168A1168260A168A110800831256
:102BE4000313B8003408B7003708B20038080A16CF
:102BF4008A1128260A168A11831203133608B30190
:102C0400B3073508B201B2070A168A1120270A163B
:102C14008A110800F400F408031D112E122E1A2E36
:102C24007308803E0A128A159B200A168A11272EE1
:102C34007408013A031D1F2E202E272E7308C03E50
:102C44000A128A159B200A168A110800831203139C
:102C5400B300B308031D2F2E302E382E3208803EC9
:102C64000A128A15DC200A168A11472E83120313CE
:102C74003308013A031D3F2E402E472E3208C03E32
:102C84000A128A15DC200A168A1108000310003083
:102C94000318013083120313B400B630B50080303A
:102CA400B60000300A168A11F1250A168A111A3064
:102CB40083120313BB004530BA007E30B900B90B50
:102CC400612EBA0B612EBB0B612E08007D2E740899
:102CD400FF00730884000A128A1115200A168A114B
:102CE4000A128A155A200A168A110130F3070318AA
:102CF400F40A0030F4077408FF00730884000A1211
:102D04008A1115200A168A110038031D8A2E8B2E6B
:102D1400692E0800031000300318013083120313D6
:102D2400B4000130B5008030B60000300A168A11B4
:102D3400F1250A168A111A3083120313BB00453099
:102D4400BA007E30B900B90BA52EBA0BA52EBB0B69
:102D5400A52E0A168A1169250A168A11080003107D
:102D640000300318013083120313B4005330B5004C
:102D74008030B60000300A168A11F1250A168A112D
:102D84001A3083120313BB004530BA007E30B900F9
:102D9400B90BCA2EBA0BCA2EBB0BCA2E0A168A113D
:102DA40069250A168A11080003100030031801303F
:102DB40083120313B4008030B5008030B6000030B5
:102DC4000A168A11F1250A168A111A30831203137E
:102DD400BB004530BA007E30B900B90BEF2EBA0BF8
:102DE400EF2EBB0BEF2E0A168A1169250A168A11DB
:102DF4000800031000300318013083120313B400D9
:102E04002330B5008030B60000300A168A11F1254F
:102E14000A168A111A3083120313BB004530BA0014
:102E24007E30B900B90B142FBA0B142FBB0B142F1F
:102E34000A168A1169250A168A110800392F831285
:102E440003133308FF00320884000A128A11152084
:102E54000A168A110A128A151D210A168A110130CE
:102E640083120313B2070318B30A0030B3073308FD
:102E7400FF00320884000A128A1115200A168A11EA
:102E84000038031D462F472F212F08000A128A15E8
:102E940022200A168A110A168A115C250A168A113A
:102EA4000A168A1152250A168A110A128A15002056
:102EB4000A168A110A168A11C4250A168A110A16D4
:102EC4008A1170250A168A110A168A1169250A16AA
:102ED4008A11031000300318013083120313CB004E
:102EE4000800831203131F140030F6000030F700AB
:102EF4000030F4000030F5009F14802F9F18832FBA
:102F0400842F802F1E08F200F3010830FE00031006
:102F1400F20DF30DFE0B892F831603131E0872079F
:102F2400F6000030031801307307F700831203130F
:102F34001F107708F101F1077608F001F007080087
:102F440083120313BC00C02F0A168A118C260A169A
:102F54008A11D02F0A168A11B1260A168A11D02F87
:102F64000A168A11D6260A168A11D02F0A168A1131
:102F7400FB260A168A11D02FD02FD02F83120313C9
:102F84003C08013A0319A62F033A0319AC2F013A5E
:102F94000319B22F073A0319B82FBE2F080083165E
:102FA4000313A800EF2F0A128A1518240A168A118F
:102FB400FF2F0A128A15A1210A168A11FF2F0A125D
:102FC4008A1528270A168A11FF2F0A128A11AD279B
:102FD4000A168A11FF2FFF2FFF2F831603132808C9
:102FE400013A0319D52F033A0319DB2F013A0319C8
:0C2FF400E12F073A0319E72FED2F08002A
:02400E00E22CA2
:00000001FF
