:060000000A128A11122809
:10000800FE00030883120313AB000408AC000A08BF
:10001800AD007F08AE000A128A11302B0A128A1529
:100028007F29FF1B1F2883137F1883170008840A62
:100038000319FF0A080000308A000408840A8207AE
:100048000034533465347234763469346E3467342A
:10005800203443346F3466346634653465342E3462
:100068002E340034533445345434543449344E34E3
:1000780047345334203455345034443441345434A0
:100088004534443400345334653472347634693436
:100098006E346734203457346134743465347234C0
:1000A8002E342E34003444344534463441345534E7
:1000B8004C3454342034553450344434413454345A
:1000C80045344434003443344F344634463445349C
:1000D80045342034533445345434543449344E343C
:1000E80047345334003453346534723476346934C5
:1000F8006E3467342034483461346C3466342E34BA
:100108002E3400345034523445345334533420346C
:10011800453458344934543420344B3445345934F4
:100128000034533445345434543449344E34473409
:1001380053345F343034463446345F344934003401
:10014800533465347234763469346E346734203409
:100158005434653461342E342E34003453344534E9
:100168005434543449344E34473453345F3430347F
:100178004E345F34493400345434453441342034E7
:10018800533445345434543449344E344734533456
:1001980000345334453454342034443445344634DC
:1001A800413455344C345434533400345334743457
:1001B80061347234743469346E3467342E342E34B6
:1001C8002E342E340034573445344C3443344F34B1
:1001D8004D344534003459344534533400344334B1
:1001E8003A34003454343A34003457343A3400340E
:1001F8004E344F3400340530831203178D003F30DE
:1002080083120313AF002F08831603178C050C14F1
:10021800831203178C08031D122913292F2B142965
:10022800831603178C1819291A29142910308312D8
:1002380003178D0010308C003F3083120313AF007A
:100248002F08831603178C058312031303108B1FC3
:100258002E292F29302903148B13831603170C1505
:1002680055308D00AA308D008C140C1183120313A5
:10027800031C3F29402941298B170330B1008830DE
:10028800B0005630AF00AF0B4729B00B4729B10B70
:1002980047294E29831603178C18532954294E29A8
:1002A8001230831203178D0010308C003F308312F8
:1002B8000313AF002F08831603178C05831203134B
:1002C80003108B1F682969296A2903148B13831665
:1002D80003170C1555308D00AA308D008C140C11A5
:1002E80083120313031C79297A297B298B1703307E
:1002F800B1008830B0005630AF00AF0B8129B00B89
:100308008129B10B81298829831603178C188D2917
:100318008E2988291430831203178D0010308C0021
:100328003F3083120313AF002F08831603178C0581
:100338008312031303108B1FA229A329A4290314D2
:100348008B13831603170C1555308D00AA308D00BA
:100358008C140C1183120313031CB329B429B52977
:100368008B170330B1008830B0005630AF00AF0BA8
:10037800BB29B00BBB29B10BBB29C22983160317B4
:100388008C18C729C829C2291630831203178D0073
:1003980010308C003F3083120313AF002F088316F0
:1003A80003178C058312031303108B1FDC29DD2927
:1003B800DE2903148B13831603170C1555308D0093
:1003C800AA308D008C140C1183120313031CED2921
:1003D800EE29EF298B170330B1008830B000563072
:1003E800AF00AF0BF529B00BF529B10BF529FC29A6
:1003F800831603178C18012A022AFC29203083123D
:1004080003178D0010308C003F3083120313AF00A8
:100418002F08831603178C058312031303108B1FF1
:10042800162A172A182A03148B13831603170C1578
:1004380055308D00AA308D008C140C1183120313D3
:10044800031C272A282A292A8B170330B100883051
:10045800B0005630AF00AF0B2F2AB00B2F2AB10BCC
:100468002F2A362A831603178C183B2A3C2A362A49
:100478002230831203178D0010308C003F30831216
:100488000313AF002F08831603178C058312031379
:1004980003108B1F502A512A522A03148B138316D8
:1004A80003170C1555308D00AA308D008C140C11D3
:1004B80083120313031C612A622A632A8B170330F1
:1004C800B1008830B0005630AF00AF0B692AB00BCE
:1004D800692AB10B692A702A831603178C18752AA2
:1004E800762A702A2430831203178D0010308C006E
:1004F8003F3083120313AF002F08831603178C05B0
:100508008312031303108B1F8A2A8B2A8C2A031445
:100518008B13831603170C1555308D00AA308D00E8
:100528008C140C1183120313031C9B2A9C2A9D2AEA
:100538008B170330B1008830B0005630AF00AF0BD6
:10054800A32AB00BA32AB10BA32AAA2A831603173E
:100558008C18AF2AB02AAA2A2630831203178D00D6
:1005680010308C003F3083120313AF002F0883161E
:1005780003178C058312031303108B1FC42AC52A83
:10058800C62A03148B13831603170C1555308D00D8
:10059800AA308D008C140C1183120313031CD52A66
:1005A800D62AD72A8B170330B1008830B0005630CE
:1005B800AF00AF0BDD2AB00BDD2AB10BDD2A1030FE
:1005C80083120313AF002F08D0001030AF002F089C
:1005D800D2001030AF002F08D1001030AF002F0824
:1005E800D300F62A831603178C18FB2AFC2AF62A4E
:1005F8000530831203178D0001308C003F308312C1
:100608000313AF002F08831603178C0583120313F7
:1006180003108B1F102B112B122B03148B13831613
:1006280003170C1555308D00AA308D008C140C1151
:1006380083120313031C212B222B232B8B1703302C
:10064800B1008830B0005630AF00AF0B292BB00B8B
:10065800292BB10B292B08008B1E332B342B692B2C
:100668000B1D372B382B692B0130A8002808DF0712
:100678005F085A3A031D412B422B4F2BDA01031412
:10068800DA0D0310003003180130DF000130A80034
:100698002808E007542B0310003003180130DA0053
:1006A8000A306002031C592B5A2B632BDB010314FD
:1006B800DB0D0310003003180130E000682B031035
:1006C800003003180130DB000B110B1E6C2B6D2B57
:1006D800302C8B1C702B712B302C0A128A1503209E
:1006E8000A128A118B10003083120313D5000030D0
:1006F800D600902B0130D5070318D60A0030D6074C
:100708000330AA008830A9005630A800A80B8A2B0D
:10071800A90B8A2BAA0B8A2B831203130618952B75
:10072800962BA32B5608803AFE0080307E02031DCC
:100738009F2B29305502031CA22BA32B7E2B83123F
:1007480003135608803AFE0080307E02031DAE2B4C
:1007580028305502031CB12BB22B2B2C0A128A15F8
:1007680019200A128A1183120313DC08031DBD2BFA
:10077800BE2BE92BDC010314DC0D03100030031839
:100788000130D4000310003003180130F5008E301A
:10079800A8002808F60000300A128A1566200A12F6
:1007A8008A111A3083120313AA004530A9007E303B
:1007B800A800A80BDD2BA90BDD2BAA0BDD2B0A1239
:1007C8008A1527200A128A112B2C831203135C081E
:1007D800013A031DF02BF12B2B2C031000300318CA
:1007E8000130DC00D4010314D40D031000300318C9
:1007F8000130F5007130A8002808F60000300A1210
:100808008A1566200A128A111A3083120313AA0065
:100818004530A9007E30A800A80B102CA90B102C7D
:10082800AA0B102C0A128A1519200A128A110430F0
:1008380083120313A8002808F500C330A90029086B
:10084800F60000300A128A1566200A128A110A1266
:100858008A1509200A128A11831203132E08FF0031
:100868002D088A002C0884002B088300FE0E7E0EBB
:1008780009000A128A1520200A128A11831203130A
:10088800D808031D482C492C922C0230C00040087F
:10089800B4009C30C1004108B50000300A128A1526
:1008A8007B200A128A1183120313D708031D5D2CBB
:1008B8005E2C742CB4010314B40DD230C00040086F
:1008C800B50001300A128A157B200A128A11831298
:1008D800031351080A128A15D8260A128A11922C73
:1008E800831203135708013A031D7B2C7C2C922C8E
:1008F8000A30C0004008B400D530C1004108B50036
:1009080001300A128A157B200A128A1183120313F6
:1009180053080A128A15D8260A128A118312031359
:100928005808013A031D992C9A2CE72C0310003023
:1009380003180130B4004330C0004008B50000304F
:100948000A128A157B200A128A1183120313570888
:10095800033A031DB02CB12CC92C03100030031826
:100968000130B400CF30C0004008B50001300A1291
:100978008A157B200A128A118312031350080A125F
:100988008A15D8260A128A11E72C831203135708EE
:10099800043A031DD02CD12CE72C0A30C0004008A3
:1009A800B400D530C1004108B50001300A128A15DB
:1009B8007B200A128A118312031352080A128A151D
:1009C800D8260A128A11831203135808023A031D03
:1009D800EE2CEF2C1D2D0230C0004008B400A930C9
:1009E800C1004108B50000300A128A157B200A129E
:1009F8008A11023083120313C0004008B400CB30C0
:100A0800C1004108B50001300A128A157B200A127C
:100A18008A110A3083120313C0004008B400D8308A
:100A2800C1004108B50001300A128A157B200A125C
:100A38008A114C3083120313C200CE30C1008130BA
:100A4800C000C00B252DC10B252DC20B252D640020
:100A580008000A128A1519200A128A118312031330
:100A6800D808031D382D392D822D0230A500250800
:100A7800F5009C30A6002608F60000300A128A15F8
:100A880066200A128A1183120313D708031D4D2DFD
:100A98004E2D642DF5010314F50DD230A50025085F
:100AA800F60001300A128A1566200A128A1183128A
:100AB800031351080A128A1552260A128A11822D26
:100AC800831203135708013A031D6B2D6C2D822DD9
:100AD8000A30A5002508F500D530A6002608F6003E
:100AE80001300A128A1566200A128A11831203132A
:100AF80053080A128A1552260A128A1183120313FE
:100B08005808013A031D892D8A2DD72D031000306E
:100B180003180130F5004330A5002508F600003021
:100B28000A128A1566200A128A11831203135708BB
:100B3800033A031DA02DA12DB92D03100030031871
:100B48000130F500CF30A5002508F60001300A1263
:100B58008A1566200A128A118312031350080A1292
:100B68008A1552260A128A11D72D831203135708A1
:100B7800043A031DC02DC12DD72D0A30A500250824
:100B8800F500D530A6002608F60001300A128A15AD
:100B980066200A128A118312031352080A128A1550
:100BA80052260A128A11831203135808023A031DA7
:100BB800DE2DDF2D0D2E0230A5002508F500A93009
:100BC800A6002608F60000300A128A1566200A12C6
:100BD8008A11023083120313A5002508F500CB30D3
:100BE800A6002608F60001300A128A1566200A12A5
:100BF8008A110A3083120313A5002508F500D8309E
:100C0800A6002608F60001300A128A1566200A1284
:100C18008A114C3083120313A700CE30A60081300E
:100C2800A500A50B152EA60B152EA70B152E6400D7
:100C38000800031000300318013083120313DE008C
:100C480085010310003003180130DD00C62E0508A9
:100C5800023A031D302E312E4E2E0D30831603130B
:100C6800A400A330A300BD30A200A20B392EA30B11
:100C7800392EA40B392E6400831203130508023A97
:100C8800031D472E482E4E2EDD010314DD0DDE0117
:100C98000314DE0D0508043A031D532E542E762E38
:100CA8000D3083160313A400A330A300BD30A200A7
:100CB800A20B5C2EA30B5C2EA40B5C2E640083128B
:100CC80003130508043A031D6A2E6B2E762EDD01E8
:100CD8000314DD0D023083160313A20022088312C9
:100CE8000313DE000508083A031D7B2E7C2E9E2E7A
:100CF8000D3083160313A400A330A300BD30A20057
:100D0800A20B842EA30B842EA40B842E64008312C2
:100D180003130508083A031D922E932E9E2EDD011B
:100D28000314DD0D033083160313A2002208831277
:100D38000313DE000508103A031DA32EA42EC62EA9
:100D48000D3083160313A400A330A300BD30A20006
:100D5800A20BAC2EA30BAC2EA40BAC2E64008312FA
:100D680003130508103A031DBA2EBB2EC62EDD014B
:100D78000314DD0D043083160313A2002208831226
:100D88000313DE00DD08031DCA2ECB2ECF2E5E080E
:100D9800031DCF2E2B2E5D08013A031DD42ED52E10
:100DA800EF2ED408031DD92EDA2EE12E5E080A1282
:100DB8008A1556210A128A11EF2E8312031354083A
:100DC800013A031DE82EE92EEF2E5E080A128A1555
:100DD80056210A128A1103100030031801308312B9
:100DE8000313DD000310003003180130DE00080093
:100DF80083120313D708031D022F032F142FD808BB
:100E0800031D072F082F142F1030510203180D2F20
:100E18000E2F132F5108013EC3004308D100AD2FF8
:100E28005708013A031D192F1A2F2B2FD808031D15
:100E38001E2F1F2F2B2F103053020318242F252F5E
:100E48002A2F5308013EC3004308D300AD2F57088B
:100E5800033A031D302F312F432F5808013A031D41
:100E6800362F372F432F1030500203183C2F3D2FB9
:100E7800422F5008013EC3004308D000AD2F570849
:100E8800043A031D482F492F5B2F5808013A031DC8
:100E98004E2F4F2F5B2F103052020318542F552F0F
:100EA8005A2F5208013EC3004308D200AD2F5808FC
:100EB800023A031D602F612FAD2F1030C300430885
:100EC800D0001030C3004308D2001030C3004308DC
:100ED800D1001030C3004308D300031000300318BA
:100EE8000130B4003330C3004308B50001300A12A2
:100EF8008A157B200A128A11333083120313C50026
:100F08008930C4000030C300C30B882FC40B882F5E
:100F1800C50B882F03100030031801308312031308
:100F2800B4006230C3004308B50001300A128A15C4
:100F38007B200A128A11333083120313C5008930CB
:100F4800C4000030C300C30BA72FC40BA72FC50BC9
:100F5800A72F00300A128A113D240A128A110800AC
:100F680083120313D808031DBA2FBB2FCD2FD70820
:100F7800031DBF2FC02FC12FCC2F5708013A031DC7
:100F8800C62FC72FCC2F0310003003180130D7000D
:100F9800F62F5808013A031DD22FD32FED2F5708EB
:100FA800043A031DD82FD92FDE2F0330C30043087E
:100FB800D700EC2F5708033A031DE32FE42FEC2F3B
:100FC8000310003003180130D800D7010314D70DDF
:100FD800F62F5808023A031DF22FF32FF62FD801E7
:100FE8000314D80D01300A128A113D240A128A11FD
:060FF80008000134013481
:101006000B1208008B1708000B1308008316031336
:1010160001130B1608008316031301130B160800A1
:1010260001308316031386008117080001300A1267
:101036008A15D7210A128A15080001300A128A1564
:1010460005220A128A150800031000300318013021
:1010560083120313D80000300A128A112D250A12B2
:101066008A150800023428340E34013406348034DC
:1010760030343034303400340A340A340A340A3412
:1010860001340630831603139F008901880101305D
:10109600860085010130831203138600D4010314F0
:1010A600D40D08007E088A007F08820055200A12A7
:1010B6008A158000840A04087D0603190034FF0A95
:1010C6000319FE0A5928F8007508F7007708F30097
:1010D60078080A128A15AE200A128A157608F300D5
:1010E6008030F4000A128A150A210A128A150800AD
:1010F60083120313B7003408B6003608B200370867
:101106000A128A15CA200A128A1583120313350891
:10111600B2008030B3000A128A152E210A128A15EF
:1011260008000A128A152D230A128A150A128A1530
:1011360013200A128A150A128A150E200A128A1517
:101146000A128A1507200A128A150A128A1505201C
:101156000A128A150800F400F408031DB328B428FF
:10116600BC287308803E0A128A15D7210A128A15EE
:10117600C9287408013A031DC128C228C928730862
:10118600C03E0A128A15D7210A128A150800831250
:101196000313B300B308031DD128D228DA28320876
:1011A600803E0A128A1505220A128A15E928831238
:1011B60003133308013A031DE128E228E92832081F
:1011C600C03E0A128A1505220A128A150800031063
:1011D60000300318013083120313B400B630B80090
:1011E6003808B50000300A128A157B200A128A15C3
:1011F6001A3083120313BA004530B9007E30B800A6
:10120600B80B0329B90B0329BA0B032908001F29B8
:101216007408FF00730884000A128A1115200A1246
:101226008A150A128A15A9210A128A150130F307AE
:101236000318F40A0030F4077408FF0073088400EA
:101246000A128A1115200A128A150038031D2C2944
:101256002D290B2908004729831203133308FF00A1
:10126600320884000A128A1115200A128A150A12F7
:101276008A1533220A128A15013083120313B20724
:101286000318B30A0030B3073308FF00320884009E
:101296000A128A1115200A128A150038031D5429CC
:1012A60055292F29080083160313A1000A128A154F
:1012B60020200A128A1583120313D408031D6429F9
:1012C60065296E298316031321080A128A159022AE
:1012D6000A128A157E29831203135408013A031D44
:1012E600752976297E298316031321080A128A1581
:1012F60061220A128A150800D501D601D701D80144
:10130600D901DA01DB01DC01DD01DE01DF01E001EB
:1013160083135530FD000830FE003530FF0046309F
:1013260084000A128A1559200A128A150A128A118D
:10133600FD270A128A15FC000A128A11FE270A12D4
:101346008A15FD0083010A128A15652BF2007208C0
:10135600F00004300310F00CFF3E031DAD297008A9
:101366000F398312031388000914891009152130D7
:10137600F1007630F000F00BBE29F10BBE296400B7
:1013860083120313091172080F39880009152130D9
:10139600F1007630F000F00BCE29F10BCE29640077
:1013A6008312031309110800F2007208F0000430DA
:1013B6000310F00CFF3E031DDB2970080F39831262
:1013C600031388000910891009152130F1007630C1
:1013D600F000F00BEC29F10BEC29640083120313E7
:1013E600091172080F39880009152130F10076308D
:1013F600F000F00BFC29F10BFC29640083120313A7
:101406000911080083120313B1003108AF0004303C
:101416000310AF0CFF3E031D0B2A2F080F3988005F
:101426000910891009152130B0007630AF00AF0BD6
:101436001A2AB00B1A2A6400831203130911310801
:101446000F39880009152130B0007630AF00AF0B98
:101456002A2AB00B2A2A64008312031309110800F2
:1014660083120313B1003108AF0004300310AF0C30
:10147600FF3E031D392A2F080F39880009148910E9
:1014860009152130B0007630AF00AF0B482AB00BFB
:10149600482A640083120313091131080F398800A2
:1014A60009152130B0007630AF00AF0B582AB00BCB
:1014B600582A6400831203130911080083120313C8
:1014C600BB007F2A0A128A15EE230A128A158F2A72
:1014D6000A128A15BF220A128A158F2A0A128A153B
:1014E600F6220A128A158F2A0A128A1509250A1265
:1014F6008A158F2A8F2A8F2A831203133B08013AF3
:101506000319652A033A03196B2A013A0319712A4A
:10151600073A0319772A7D2A080083160313A000C9
:10152600AE2A0A128A11B4270A128A15BE2A0A128C
:101536008A11FC260A128A15BE2A0A128A155E2705
:101546000A128A15BE2A0A128A15A7230A128A15B2
:10155600BE2ABE2ABE2A831603132008013A03199F
:10156600942A033A03199A2A013A0319A02A073A38
:101576000319A62AAC2A080003100030031801300C
:1015860083120313B4005330B8003808B500003096
:101596000A128A157B200A128A151A30831203133F
:1015A600BA004530B9007E30B800B80BD82AB90B5E
:1015B600D82ABA0BD82A8312031306160630BA00A5
:1015C6000E30B900B030B800B80BE72AB90BE72ADD
:1015D600BA0BE72A8312031306120A128A15202071
:1015E6000A128A150800031000300318013083120E
:1015F6000313B4002330B8003808B50000300A12CF
:101606008A157B200A128A151A3083120313BA0030
:101616004530B9007E30B800B80B0F2BB90B0F2B35
:10162600BA0B0F2B8312031306160630BA000E30C0
:10163600B900B030B800B80B1E2BB90B1E2BBA0B75
:101646001E2B8312031306120A128A1520200A1271
:101656008A15080033308400831203134608831367
:101666008000840A47088000840A48088000840AAB
:1016760049088000840A4A088000840A4B088000D2
:101686000310003003180130B90006303902031C7C
:101696004D2B4E2B4F2B642B3908333E840000080C
:1016A6000A128A1505220A128A15013083120313BB
:1016B600B2003208B90706303902031C632B642BCB
:1016C6004F2B08000A128A1544200A128A150A129C
:1016D6008A1594200A128A150A128A11FF200A1204
:1016E6008A150A128A15EA200A128A150A128A151A
:1016F60020200A128A15013083120313860054082B
:10170600013A031D872B882B9E2B04308316031367
:10171600A500250883120313B400C33083160313F0
:10172600A600260883120313B50000300A128A1594
:101736007B200A128A150A128A111D260A128A1598
:101746007E2B0A128A11122883120313D808031D4E
:10175600AD2BAE2BC52BD708031DB22BB32BB72B46
:10176600D7010314D70DC42B5708013A031DBC2B10
:10177600BD2BC42B0330C3004308D700D801031484
:10178600D80DE72B5808013A031DCA2BCB2BE12BAA
:101796005708033A031DD02BD12BD62B0430C30098
:1017A6004308D700E02B5708043A031DDB2BDC2B3C
:1017B600E02B0230C3004308D800E72B5808023A52
:1017C600031DE62BE72BE72B01300A128A113D2475
:1017D6000A128A150800031000300318013083121C
:1017E6000313B4000130B8003808B50000300A12FF
:1017F6008A157B200A128A15831203138614063073
:10180600BA000E30B900B030B800B80B082CB90BCE
:10181600082CBA0B082C8312031386100615063003
:10182600BA000E30B900B030B800B80B182CB90B9E
:10183600182CBA0B182C83120313061186150630C2
:10184600BA000E30B900B030B800B80B282CB90B6E
:10185600282CBA0B282C8312031386110616063081
:10186600BA000E30B900B030B800B80B382CB90B3E
:10187600382CBA0B382C8312031306120A128A1557
:1018860020200A128A1508000310003003180130C0
:10189600F600F31F4F2C502C582CF209F309F20ACC
:1018A6000319F30AF6010314F60DF11F5B2C5C2CE9
:1018B600612CF009F109F00A0319F10A71087004A4
:1018C6000319662C672C972CF5010314F50D762C5D
:1018D60001300310F00DF10DFF3E031D6C2C01309D
:1018E600F4007408F507F11F792C7A2C6B2C71081B
:1018F6007302031D802C70087202031C832C842C37
:101906008A2C7008F2027108031CF303F3020130FB
:101916000310F10CF00CFF3E031D8B2C0130F50279
:10192600031D962C972C7A2C7608031D9B2CA02C35
:10193600F209F309F20A0319F30A7308F101F10730
:101946007208F001F0070800031000300318013098
:1019560083120313B500B21FB12CB22CBA2CB109F5
:10196600B209B10A0319B20AB5010314B50DB01FC5
:10197600BD2CBE2CC32CAF09B009AF0A0319B00A9F
:1019860030082F040319C82CC92CF92CB4010314F0
:10199600B40DD82C01300310AF0DB00DFF3E031D62
:1019A600CE2C0130B3003308B407B01FDB2CDC2C7F
:1019B600CD2C30083202031DE22C2F083102031C05
:1019C600E52CE62CEC2C2F08B1023008031CB203E0
:1019D600B20201300310B00CAF0CFF3E031DED2C1C
:1019E6000130B402031DF82CF92CDC2C3508031D3C
:1019F600FD2C022DB109B209B10A0319B20A320847
:101A0600B001B0073108AF01AF070800031000307E
:101A16000318013083120313B4008030B80038086D
:101A2600B50000300A128A157B200A128A151A3070
:101A360083120313BA004530B9007E30B800B80BE4
:101A4600222DB90B222DBA0B222D831203138617D2
:101A56000630BA000E30B900B030B800B80B312DE0
:101A6600B90B312DBA0B312D8312031386130617CA
:101A76000630BA000E30B900B030B800B80B412DB0
:101A8600B90B412DBA0B412D83120313061386168B
:101A96000630BA000E30B900B030B800B80B512D80
:101AA600B90B512DBA0B512D83120313861206164C
:101AB6000630BA000E30B900B030B800B80B612D50
:101AC600B90B612DBA0B612D8312031306120A128C
:101AD6008A1520200A128A15080003100030031800
:101AE6000130F600F11F782D792D812DF009F109CD
:101AF600F00A0319F10AF6010314F60DF31F842DFB
:101B0600852D8E2DF209F309F20A0319F30A013025
:101B1600F4007408F6060030F7000030F80071088B
:101B260070040319972D982DD02DF5010314F50D8A
:101B3600A72D01300310F00DF10DFF3E031D9D2D65
:101B46000130F4007408F507F11FAA2DAB2D9C2D6A
:101B560001300310F70DF80DFF3E031DAC2D710883
:101B66007302031DB82D70087202031CBB2DBC2D19
:101B7600C32D7008F2027108031CF303F3027714F5
:101B860001300310F10CF00CFF3E031DC42D013093
:101B9600F502031DCF2DD02DAB2D7608031DD42DB8
:101BA600D92DF709F809F70A0319F80A7808F10197
:101BB600F1077708F001F00708000310003003185A
:101BC600013083120313B500B01FEA2DEB2DF32D60
:101BD600AF09B009AF0A0319B00AB5010314B50D70
:101BE600B21FF62DF72D002EB109B209B10A03195D
:101BF600B20A0130B3003308B5060030B600003033
:101C0600B70030082F040319092E0A2E422EB401FC
:101C16000314B40D192E01300310AF0DB00DFF3EA5
:101C2600031D0F2E0130B3003308B407B01F1C2E5E
:101C36001D2E0E2E01300310B60DB70DFF3E031DEF
:101C46001E2E30083202031D2A2E2F083102031CD5
:101C56002D2E2E2E352E2F08B1023008031CB2036E
:101C6600B202361401300310B00CAF0CFF3E031D58
:101C7600362E0130B402031D412E422E1D2E35088C
:101C8600031D462E4B2EB609B709B60A0319B70A25
:101C96003708B001B0073608AF01AF070800831256
:101CA6000313A4004F08A3004E08A2004D08A1008C
:101CB6004C08A0000A30F0000030F1002408F900BA
:101CC600FA017908F2007A08F3000A128A15472405
:101CD6000A128A157008303EFB007B088312031334
:101CE600A2000A30F0000030F1002408F900FA01E1
:101CF6007908F2007A08F3000A128A1570250A128A
:101D06008A157008FB007B0883120313A4000A30AF
:101D1600F0000030F1002408F900FA017908F20019
:101D26007A08F3000A128A1547240A128A157008DF
:101D3600303EFB007B0883120313A1000A30F0003B
:101D46000030F1002408F900FA017908F2007A0857
:101D5600F3000A128A1570250A128A157008FB000C
:101D66007B0883120313A4000A30F0000030F10050
:101D76002408F900FA017908F2007A08F3000A1239
:101D86008A1547240A128A157008303EFB007B0824
:101D960083120313A0002030F3000030F4000A126F
:101DA6008A150A210A128A15080083120313BF0036
:101DB6004F08BE004E08BD004D08BC004C08BB00D5
:101DC6000A30AF000030B0003F08B800B90138084B
:101DD600B1003908B2000A128A15A7240A128A1518
:101DE600831203132F08303EBA003A08BD000A30AA
:101DF600AF000030B0003F08B800B9013808B100A4
:101E06003908B2000A128A15E0250A128A158312C9
:101E160003132F08BA003A08BF000A30AF0000309B
:101E2600B0003F08B800B9013808B1003908B2005F
:101E36000A128A15A7240A128A15831203132F0879
:101E4600303EBA003A08BC000A30AF000030B0009D
:101E56003F08B800B9013808B1003908B2000A12C3
:101E66008A15E0250A128A15831203132F08BA0071
:101E76003A08BF000A30AF000030B0003F08B80093
:101E8600B9013808B1003908B2000A128A15A72428
:101E96000A128A15831203132F08303EBA003A0835
:101EA600BB003B30B2000030B3000A128A152E2167
:101EB6000A128A15080083120313D708031D642F1C
:101EC600652F702FD808031D692F6A2F702F5108B0
:101ED600FF3EC3004308D100F92F5708013A031DFE
:101EE600752F762F872FD808031D7A2F7B2F872FE4
:101EF600103053020318802F812F862F5308FF3E80
:101F0600C3004308D300F92F5708033A031D8C2F4B
:101F16008D2F9F2F5808013A031D922F932F9F2F25
:101F2600103050020318982F992F9E2F5008FF3E0D
:101F3600C3004308D000F92F5708043A031DA42F05
:101F4600A52FB72F5808013A031DAA2FAB2FB72F7D
:101F5600103052020318B02FB12FB62F5208FF3E91
:101F6600C3004308D200F92F5808023A031DBC2FBC
:101F7600BD2FF92F0310003003180130B4001230C2
:101F8600C3004308B50001300A128A157B200A12E5
:101F96008A15333083120313C5008930C40000301C
:101FA600C300C30BD42FC40BD42FC50BD42F0310DF
:101FB60000300318013083120313B4006230C300EB
:101FC6004308B50001300A128A157B200A128A15C9
:101FD600333083120313C5008930C4000030C300B8
:101FE600C30BF32FC40BF32FC50BF32F00300A12CC
:0A1FF6008A113D240A128A15080022
:02400E00323F3F
:00000001FF
